:020000020000FC
:020000002EC10F
:0200040018954D
:02000800189549
:02000C00189545
:02001000189541
:0200140018953D
:02001800189539
:02001C00189535
:02002000189531
:0200240018952D
:02002800189529
:02002C00189525
:02003000189521
:0200340018951D
:02003800189519
:02003C00189515
:0200400025C0D9
:0200440018950D
:0200480048C0AE
:02004C00189505
:02005000189501
:020054001895FD
:020058001895F9
:02005C001895F5
:020060001895F1
:020064001895ED
:020068001895E9
:02006C001895E5
:020070001895E1
:020074001895DD
:020078003BC08B
:02007C001895D5
:020080001895D1
:020084001895CD
:020088001895C9
:10008C001FB60F931F93AF93BF930091000104FF12
:10009C0014C0A0911701B09118011196AD3010E069
:1000AC00B10730F003BEAA27BB2701600F7E83E0A7
:1000BC00A0931701B093180102C003BE0062009315
:1000CC000001BF91AF911F910F911FBE18951FB6E4
:1000DC000F938CB1009100010160009300010F910E
:1000EC001FBE18951FB60F93AF93BF93A1E0B1E05D
:1000FC0000911501A00FB01D90919C009C9303954D
:10010C00043108F0002700931501BF91AF910F91B6
:10011C001FBE189503E004BB05BB939A929A0895F1
:10012C0003BE01E007BF089510E000E110939000BA
:10013C0009B902E00BB908E90AB906E00093950089
:10014C00089510E007E61093980000939900009230
:10015C009B0000929A0006E000939D0008955D9B21
:10016C00FECF8CB9089590919B0095FFFCCF95E53F
:10017C0090939C0090919B0095FFFCCF80939C00EA
:10018C0000919B0006FFFCCF006400939B00009144
:10019C009A00006900939A0000910001006100939D
:1001AC00000107E003BF08950091000100FF0EC09D
:1001BC000E7F0093000100919A00077600939A003D
:1001CC0007E01AEE12BF8B9A939803BF0895009123
:1001DC00000105FF12C00F7D03FD0BC008600093EA
:1001EC000001939A00008B9807E01DEF12BF03BF2C
:1001FC0004C0077F04600093000108950091000182
:10020C0002FF0AC00B7F0093000103BE00919A000D
:10021C00086000939A00A7DF0895009115011091D2
:10022C001601011761F0A1E0B1E0A10FB01D8C9196
:10023C001395143108F011271093160190DF0895CF
:10024C00DC9906C000919C0005B312E0012705BBA8
:10025C0008950024F0E1FEBFEFEFEDBFD1E0029274
:10026C00E030FD0711F4EDE1F02DE015F005B9F7E4
:10027C0051DF56DF59DF65DF78948EDF95DFA7DF1E
:06028C00BDDFCBDFFBCF5C
:00000001FF
